{
  "contractName": "SupplyChain",
  "abi": [
    {
      "inputs": [],
      "stateMutability": "nonpayable",
      "type": "constructor"
    },
    {
      "inputs": [
        {
          "internalType": "uint256",
          "name": "i",
          "type": "uint256"
        },
        {
          "internalType": "string",
          "name": "n",
          "type": "string"
        }
      ],
      "name": "addProduct",
      "outputs": [],
      "stateMutability": "nonpayable",
      "type": "function"
    },
    {
      "inputs": [
        {
          "internalType": "uint256",
          "name": "i",
          "type": "uint256"
        },
        {
          "internalType": "address",
          "name": "d",
          "type": "address"
        }
      ],
      "name": "addDistributor",
      "outputs": [],
      "stateMutability": "nonpayable",
      "type": "function"
    },
    {
      "inputs": [
        {
          "internalType": "uint256",
          "name": "i",
          "type": "uint256"
        },
        {
          "internalType": "address",
          "name": "r",
          "type": "address"
        }
      ],
      "name": "addRetailer",
      "outputs": [],
      "stateMutability": "nonpayable",
      "type": "function"
    },
    {
      "inputs": [
        {
          "internalType": "uint256",
          "name": "i",
          "type": "uint256"
        }
      ],
      "name": "verifyProduct",
      "outputs": [
        {
          "components": [
            {
              "internalType": "uint256",
              "name": "id",
              "type": "uint256"
            },
            {
              "internalType": "string",
              "name": "name",
              "type": "string"
            },
            {
              "internalType": "bool",
              "name": "valid",
              "type": "bool"
            },
            {
              "internalType": "address",
              "name": "d",
              "type": "address"
            },
            {
              "internalType": "address",
              "name": "r",
              "type": "address"
            },
            {
              "internalType": "bool",
              "name": "isDistributed",
              "type": "bool"
            },
            {
              "internalType": "bool",
              "name": "isRetailed",
              "type": "bool"
            }
          ],
          "internalType": "struct SupplyChain.product",
          "name": "",
          "type": "tuple"
        }
      ],
      "stateMutability": "view",
      "type": "function",
      "constant": true
    }
  ],
  "bytecode": "0x608060405234801561001057600080fd5b50336000806101000a81548173ffffffffffffffffffffffffffffffffffffffff021916908373ffffffffffffffffffffffffffffffffffffffff160217905550610e6f806100606000396000f3fe608060405234801561001057600080fd5b506004361061004c5760003560e01c806323cd950a14610051578063524e84621461006d57806389126cc61461009d578063cf8703ec146100b9575b600080fd5b61006b600480360381019061006691906108be565b6100d5565b005b6100876004803603810190610082919061091a565b610335565b6040516100949190610acd565b60405180910390f35b6100b760048036038101906100b29190610b1b565b6104fb565b005b6100d360048036038101906100ce9190610b1b565b6105dd565b005b3373ffffffffffffffffffffffffffffffffffffffff1660008054906101000a900473ffffffffffffffffffffffffffffffffffffffff1673ffffffffffffffffffffffffffffffffffffffff161461012d57600080fd5b6001600083815260200190815260200160002060020160009054906101000a900460ff161561015b57600080fd5b60006040518060e0016040528084815260200183815260200160011515815260200160008054906101000a900473ffffffffffffffffffffffffffffffffffffffff1673ffffffffffffffffffffffffffffffffffffffff16815260200160008054906101000a900473ffffffffffffffffffffffffffffffffffffffff1673ffffffffffffffffffffffffffffffffffffffff16815260200160001515815260200160001515815250905080600160008360000151815260200190815260200160002060008201518160000155602082015181600101908161023e9190610d67565b5060408201518160020160006101000a81548160ff02191690831515021790555060608201518160020160016101000a81548173ffffffffffffffffffffffffffffffffffffffff021916908373ffffffffffffffffffffffffffffffffffffffff16021790555060808201518160030160006101000a81548173ffffffffffffffffffffffffffffffffffffffff021916908373ffffffffffffffffffffffffffffffffffffffff16021790555060a08201518160030160146101000a81548160ff02191690831515021790555060c08201518160030160156101000a81548160ff021916908315150217905550905050505050565b61033d6106bf565b600160008381526020019081526020016000206040518060e00160405290816000820154815260200160018201805461037590610b8a565b80601f01602080910402602001604051908101604052809291908181526020018280546103a190610b8a565b80156103ee5780601f106103c3576101008083540402835291602001916103ee565b820191906000526020600020905b8154815290600101906020018083116103d157829003601f168201915b505050505081526020016002820160009054906101000a900460ff161515151581526020016002820160019054906101000a900473ffffffffffffffffffffffffffffffffffffffff1673ffffffffffffffffffffffffffffffffffffffff1673ffffffffffffffffffffffffffffffffffffffff1681526020016003820160009054906101000a900473ffffffffffffffffffffffffffffffffffffffff1673ffffffffffffffffffffffffffffffffffffffff1673ffffffffffffffffffffffffffffffffffffffff1681526020016003820160149054906101000a900460ff161515151581526020016003820160159054906101000a900460ff1615151515815250509050919050565b6001600083815260200190815260200160002060020160009054906101000a900460ff1661052857600080fd5b6001600083815260200190815260200160002060030160149054906101000a900460ff161561055657600080fd5b806001600084815260200190815260200160002060020160016101000a81548173ffffffffffffffffffffffffffffffffffffffff021916908373ffffffffffffffffffffffffffffffffffffffff160217905550600180600084815260200190815260200160002060030160146101000a81548160ff0219169083151502179055505050565b6001600083815260200190815260200160002060020160009054906101000a900460ff1661060a57600080fd5b6001600083815260200190815260200160002060030160159054906101000a900460ff161561063857600080fd5b806001600084815260200190815260200160002060030160006101000a81548173ffffffffffffffffffffffffffffffffffffffff021916908373ffffffffffffffffffffffffffffffffffffffff160217905550600180600084815260200190815260200160002060030160156101000a81548160ff0219169083151502179055505050565b6040518060e001604052806000815260200160608152602001600015158152602001600073ffffffffffffffffffffffffffffffffffffffff168152602001600073ffffffffffffffffffffffffffffffffffffffff1681526020016000151581526020016000151581525090565b6000604051905090565b600080fd5b600080fd5b6000819050919050565b61075581610742565b811461076057600080fd5b50565b6000813590506107728161074c565b92915050565b600080fd5b600080fd5b6000601f19601f8301169050919050565b7f4e487b7100000000000000000000000000000000000000000000000000000000600052604160045260246000fd5b6107cb82610782565b810181811067ffffffffffffffff821117156107ea576107e9610793565b5b80604052505050565b60006107fd61072e565b905061080982826107c2565b919050565b600067ffffffffffffffff82111561082957610828610793565b5b61083282610782565b9050602081019050919050565b82818337600083830152505050565b600061086161085c8461080e565b6107f3565b90508281526020810184848401111561087d5761087c61077d565b5b61088884828561083f565b509392505050565b600082601f8301126108a5576108a4610778565b5b81356108b584826020860161084e565b91505092915050565b600080604083850312156108d5576108d4610738565b5b60006108e385828601610763565b925050602083013567ffffffffffffffff8111156109045761090361073d565b5b61091085828601610890565b9150509250929050565b6000602082840312156109305761092f610738565b5b600061093e84828501610763565b91505092915050565b61095081610742565b82525050565b600081519050919050565b600082825260208201905092915050565b60005b83811015610990578082015181840152602081019050610975565b60008484015250505050565b60006109a782610956565b6109b18185610961565b93506109c1818560208601610972565b6109ca81610782565b840191505092915050565b60008115159050919050565b6109ea816109d5565b82525050565b600073ffffffffffffffffffffffffffffffffffffffff82169050919050565b6000610a1b826109f0565b9050919050565b610a2b81610a10565b82525050565b600060e083016000830151610a496000860182610947565b5060208301518482036020860152610a61828261099c565b9150506040830151610a7660408601826109e1565b506060830151610a896060860182610a22565b506080830151610a9c6080860182610a22565b5060a0830151610aaf60a08601826109e1565b5060c0830151610ac260c08601826109e1565b508091505092915050565b60006020820190508181036000830152610ae78184610a31565b905092915050565b610af881610a10565b8114610b0357600080fd5b50565b600081359050610b1581610aef565b92915050565b60008060408385031215610b3257610b31610738565b5b6000610b4085828601610763565b9250506020610b5185828601610b06565b9150509250929050565b7f4e487b7100000000000000000000000000000000000000000000000000000000600052602260045260246000fd5b60006002820490506001821680610ba257607f821691505b602082108103610bb557610bb4610b5b565b5b50919050565b60008190508160005260206000209050919050565b60006020601f8301049050919050565b600082821b905092915050565b600060088302610c1d7fffffffffffffffffffffffffffffffffffffffffffffffffffffffffffffffff82610be0565b610c278683610be0565b95508019841693508086168417925050509392505050565b6000819050919050565b6000610c64610c5f610c5a84610742565b610c3f565b610742565b9050919050565b6000819050919050565b610c7e83610c49565b610c92610c8a82610c6b565b848454610bed565b825550505050565b600090565b610ca7610c9a565b610cb2818484610c75565b505050565b5b81811015610cd657610ccb600082610c9f565b600181019050610cb8565b5050565b601f821115610d1b57610cec81610bbb565b610cf584610bd0565b81016020851015610d04578190505b610d18610d1085610bd0565b830182610cb7565b50505b505050565b600082821c905092915050565b6000610d3e60001984600802610d20565b1980831691505092915050565b6000610d578383610d2d565b9150826002028217905092915050565b610d7082610956565b67ffffffffffffffff811115610d8957610d88610793565b5b610d938254610b8a565b610d9e828285610cda565b600060209050601f831160018114610dd15760008415610dbf578287015190505b610dc98582610d4b565b865550610e31565b601f198416610ddf86610bbb565b60005b82811015610e0757848901518255600182019150602085019450602081019050610de2565b86831015610e245784890151610e20601f891682610d2d565b8355505b6001600288020188555050505b50505050505056fea264697066735822122012adafc193ffe46a2a260c6a58a234e5bce83609d3f29b2c380c9726caa78a4f64736f6c63430008130033",
  "immutableReferences": {},
  "source": "// SPDX-License-Identifier: MIT\npragma solidity 0.8.19;\n\ncontract SupplyChain {\n  address owner;\n  struct product{\n    uint id;\n    string name;\n    bool valid;\n    address d;\n    address r;\n    bool isDistributed;\n    bool isRetailed;\n  }\n  mapping(uint=>product) products;\n\n  constructor() {\n    owner=msg.sender;\n  }\n\n  // m-> products add\n  function addProduct(uint i,string memory n) public{\n    require(owner==msg.sender);\n    // verify product exist\n    require(!products[i].valid);\n    // record create\n    product memory new_product=product(i,n,true,owner,owner,false,false);\n    // record map\n    products[new_product.id]=new_product;\n  }\n\n  // d -> assign\n  function addDistributor(uint i,address d) public{\n    // product exist\n    require(products[i].valid);\n    require(!products[i].isDistributed);\n    products[i].d=d;\n    products[i].isDistributed=true;\n  }\n\n  // r -> assign\n  function addRetailer(uint i,address r) public{\n    require(products[i].valid);\n    require(!products[i].isRetailed);\n    products[i].r=r;\n    products[i].isRetailed=true;\n  }\n\n  // product verify\n  function verifyProduct(uint i) public view returns(product memory){\n      return(products[i]);\n  }\n}\n",
  "sourcePath": "/Users/ms/Desktop/activity-18-soc/contracts/SupplyChain.sol",
  "compiler": {
    "name": "solc",
    "version": "0.8.19+commit.7dd6d404.Emscripten.clang"
  },
  "schemaVersion": "3.4.16",
  "updatedAt": "2024-09-21T04:37:01.555Z",
  "networkType": "ethereum",
  "devdoc": {
    "kind": "dev",
    "methods": {},
    "version": 1
  },
  "userdoc": {
    "kind": "user",
    "methods": {},
    "version": 1
  }
}